{
  "contractName": "Admin",
  "abi": [
    {
      "inputs": [],
      "stateMutability": "nonpayable",
      "type": "constructor"
    },
    {
      "anonymous": false,
      "inputs": [
        {
          "indexed": true,
          "internalType": "address",
          "name": "oldOwner",
          "type": "address"
        },
        {
          "indexed": true,
          "internalType": "address",
          "name": "newOwner",
          "type": "address"
        }
      ],
      "name": "TransferOwnership",
      "type": "event"
    },
    {
      "inputs": [],
      "name": "owner",
      "outputs": [
        {
          "internalType": "address",
          "name": "",
          "type": "address"
        }
      ],
      "stateMutability": "view",
      "type": "function"
    },
    {
      "inputs": [],
      "name": "isOwner",
      "outputs": [
        {
          "internalType": "bool",
          "name": "",
          "type": "bool"
        }
      ],
      "stateMutability": "view",
      "type": "function"
    },
    {
      "inputs": [],
      "name": "renounceOwnership",
      "outputs": [],
      "stateMutability": "nonpayable",
      "type": "function"
    },
    {
      "inputs": [
        {
          "internalType": "address",
          "name": "newOwner",
          "type": "address"
        }
      ],
      "name": "transferOwnership",
      "outputs": [],
      "stateMutability": "nonpayable",
      "type": "function"
    },
    {
      "inputs": [],
      "name": "kill",
      "outputs": [],
      "stateMutability": "nonpayable",
      "type": "function"
    }
  ],
  "bytecode": "0x608060405234801561001057600080fd5b50336000806101000a81548173ffffffffffffffffffffffffffffffffffffffff021916908373ffffffffffffffffffffffffffffffffffffffff16021790555060008054906101000a900473ffffffffffffffffffffffffffffffffffffffff1673ffffffffffffffffffffffffffffffffffffffff16600073ffffffffffffffffffffffffffffffffffffffff167f5c486528ec3e3f0ea91181cff8116f02bfa350e03b8b6f12e00765adbb5af85c60405160405180910390a361047a806100db6000396000f3fe608060405234801561001057600080fd5b50600436106100575760003560e01c806341c0e1b51461005c578063715018a6146100665780638da5cb5b146100705780638f32d59b1461008e578063f2fde38b146100ac575b600080fd5b6100646100c8565b005b61006e6100f2565b005b6100786101c1565b6040516100859190610395565b60405180910390f35b6100966101ea565b6040516100a391906103cb565b60405180910390f35b6100c660048036038101906100c19190610417565b610241565b005b6100d06101ea565b6100d957600080fd5b3373ffffffffffffffffffffffffffffffffffffffff16ff5b6100fa6101ea565b61010357600080fd5b600073ffffffffffffffffffffffffffffffffffffffff1660008054906101000a900473ffffffffffffffffffffffffffffffffffffffff1673ffffffffffffffffffffffffffffffffffffffff167f5c486528ec3e3f0ea91181cff8116f02bfa350e03b8b6f12e00765adbb5af85c60405160405180910390a360008060006101000a81548173ffffffffffffffffffffffffffffffffffffffff021916908373ffffffffffffffffffffffffffffffffffffffff160217905550565b60008060009054906101000a900473ffffffffffffffffffffffffffffffffffffffff16905090565b60008060009054906101000a900473ffffffffffffffffffffffffffffffffffffffff1673ffffffffffffffffffffffffffffffffffffffff163373ffffffffffffffffffffffffffffffffffffffff1614905090565b6102496101ea565b61025257600080fd5b61025b8161025e565b50565b600073ffffffffffffffffffffffffffffffffffffffff168173ffffffffffffffffffffffffffffffffffffffff160361029757600080fd5b8073ffffffffffffffffffffffffffffffffffffffff1660008054906101000a900473ffffffffffffffffffffffffffffffffffffffff1673ffffffffffffffffffffffffffffffffffffffff167f5c486528ec3e3f0ea91181cff8116f02bfa350e03b8b6f12e00765adbb5af85c60405160405180910390a3806000806101000a81548173ffffffffffffffffffffffffffffffffffffffff021916908373ffffffffffffffffffffffffffffffffffffffff16021790555050565b600073ffffffffffffffffffffffffffffffffffffffff82169050919050565b600061037f82610354565b9050919050565b61038f81610374565b82525050565b60006020820190506103aa6000830184610386565b92915050565b60008115159050919050565b6103c5816103b0565b82525050565b60006020820190506103e060008301846103bc565b92915050565b600080fd5b6103f481610374565b81146103ff57600080fd5b50565b600081359050610411816103eb565b92915050565b60006020828403121561042d5761042c6103e6565b5b600061043b84828501610402565b9150509291505056fea264697066735822122084605d1e423b6702af68bdec321a17a0e56fc843e5c8ced29dc4c4da60e2908964736f6c63430008110033",
  "immutableReferences": {},
  "source": "//SPDX-License-Identifier:MIT\r\npragma solidity 0.8.17;\r\n\r\ncontract Admin{\r\n    address private origOwner;\r\n\r\n    event TransferOwnership(address indexed oldOwner, address indexed newOwner);\r\n\r\n    constructor(){\r\n        origOwner = msg.sender;\r\n        emit TransferOwnership(address(0), origOwner);\r\n    }\r\n\r\n    function owner() public view returns(address){\r\n        return origOwner;\r\n    }\r\n\r\n    modifier onlyOwner(){\r\n        require(isOwner());\r\n        _;\r\n    }\r\n\r\n    function isOwner() public view returns(bool){\r\n        return msg.sender == origOwner;\r\n    }\r\n\r\n    function renounceOwnership() public onlyOwner{\r\n        emit TransferOwnership(origOwner, address(0));\r\n        origOwner = address(0);\r\n    }\r\n\r\n    function transferOwnership(address newOwner) public onlyOwner{\r\n        _transferOwnership(newOwner);\r\n    } \r\n\r\n    function _transferOwnership(address newOwner) internal{\r\n        require(newOwner != address(0));\r\n        emit TransferOwnership(origOwner, newOwner);\r\n        origOwner = newOwner;\r\n    }\r\n\r\n    function kill() public onlyOwner(){\r\n        selfdestruct(payable(msg.sender));\r\n    }\r\n}",
  "sourcePath": "E:\\FishTrack_N1\\contracts\\tunagateway\\Admin.sol",
  "compiler": {
    "name": "solc",
    "version": "0.8.17+commit.8df45f5f.Emscripten.clang"
  },
  "schemaVersion": "3.4.9",
  "updatedAt": "2022-10-14T07:10:49.751Z",
  "devdoc": {
    "kind": "dev",
    "methods": {},
    "version": 1
  },
  "userdoc": {
    "kind": "user",
    "methods": {},
    "version": 1
  }
}