{
  "contractName": "FishermanRole",
  "abi": [
    {
      "inputs": [],
      "stateMutability": "nonpayable",
      "type": "constructor"
    },
    {
      "anonymous": false,
      "inputs": [
        {
          "indexed": true,
          "internalType": "address",
          "name": "account",
          "type": "address"
        }
      ],
      "name": "FishermanAdded",
      "type": "event"
    },
    {
      "anonymous": false,
      "inputs": [
        {
          "indexed": true,
          "internalType": "address",
          "name": "account",
          "type": "address"
        }
      ],
      "name": "FishermanRemoved",
      "type": "event"
    },
    {
      "inputs": [
        {
          "internalType": "address",
          "name": "account",
          "type": "address"
        }
      ],
      "name": "isFisherman",
      "outputs": [
        {
          "internalType": "bool",
          "name": "",
          "type": "bool"
        }
      ],
      "stateMutability": "view",
      "type": "function"
    },
    {
      "inputs": [
        {
          "internalType": "address",
          "name": "account",
          "type": "address"
        }
      ],
      "name": "addFisherman",
      "outputs": [],
      "stateMutability": "nonpayable",
      "type": "function"
    },
    {
      "inputs": [],
      "name": "renounceFisherman",
      "outputs": [],
      "stateMutability": "nonpayable",
      "type": "function"
    }
  ],
  "bytecode": "0x608060405234801561001057600080fd5b506100203361002560201b60201c565b6101c5565b61003d81600061008360201b6100d01790919060201c565b8073ffffffffffffffffffffffffffffffffffffffff167fed8c08737b37aef2af953c3b930fa5e3f9a03f87a0a5a1e78eea37cdcbea99fc60405160405180910390a250565b600073ffffffffffffffffffffffffffffffffffffffff168173ffffffffffffffffffffffffffffffffffffffff16036100bc57600080fd5b6100cc828261013460201b60201c565b156100d657600080fd5b60018260000160008373ffffffffffffffffffffffffffffffffffffffff1673ffffffffffffffffffffffffffffffffffffffff16815260200190815260200160002060006101000a81548160ff0219169083151502179055505050565b60008073ffffffffffffffffffffffffffffffffffffffff168273ffffffffffffffffffffffffffffffffffffffff160361016e57600080fd5b8260000160008373ffffffffffffffffffffffffffffffffffffffff1673ffffffffffffffffffffffffffffffffffffffff16815260200190815260200160002060009054906101000a900460ff16905092915050565b610466806101d46000396000f3fe608060405234801561001057600080fd5b50600436106100415760003560e01c806307aa94d6146100465780639c8a893814610050578063f868e6ba1461006c575b600080fd5b61004e61009c565b005b61006a600480360381019061006591906103cd565b6100a7565b005b610086600480360381019061008191906103cd565b6100b3565b6040516100939190610415565b60405180910390f35b6100a53361017b565b565b6100b0816101d5565b50565b60006100c982600061022f90919063ffffffff16565b9050919050565b600073ffffffffffffffffffffffffffffffffffffffff168173ffffffffffffffffffffffffffffffffffffffff160361010957600080fd5b610113828261022f565b1561011d57600080fd5b60018260000160008373ffffffffffffffffffffffffffffffffffffffff1673ffffffffffffffffffffffffffffffffffffffff16815260200190815260200160002060006101000a81548160ff0219169083151502179055505050565b61018f8160006102c090919063ffffffff16565b8073ffffffffffffffffffffffffffffffffffffffff167ff56c56653b8d7dabb804d2c9d05ae558d0ed3825cdf8922f4622e49985f4843760405160405180910390a250565b6101e98160006100d090919063ffffffff16565b8073ffffffffffffffffffffffffffffffffffffffff167fed8c08737b37aef2af953c3b930fa5e3f9a03f87a0a5a1e78eea37cdcbea99fc60405160405180910390a250565b60008073ffffffffffffffffffffffffffffffffffffffff168273ffffffffffffffffffffffffffffffffffffffff160361026957600080fd5b8260000160008373ffffffffffffffffffffffffffffffffffffffff1673ffffffffffffffffffffffffffffffffffffffff16815260200190815260200160002060009054906101000a900460ff16905092915050565b600073ffffffffffffffffffffffffffffffffffffffff168173ffffffffffffffffffffffffffffffffffffffff16036102f957600080fd5b610303828261022f565b61030c57600080fd5b60008260000160008373ffffffffffffffffffffffffffffffffffffffff1673ffffffffffffffffffffffffffffffffffffffff16815260200190815260200160002060006101000a81548160ff0219169083151502179055505050565b600080fd5b600073ffffffffffffffffffffffffffffffffffffffff82169050919050565b600061039a8261036f565b9050919050565b6103aa8161038f565b81146103b557600080fd5b50565b6000813590506103c7816103a1565b92915050565b6000602082840312156103e3576103e261036a565b5b60006103f1848285016103b8565b91505092915050565b60008115159050919050565b61040f816103fa565b82525050565b600060208201905061042a6000830184610406565b9291505056fea2646970667358221220df657c8c3484fbe2d2fbb2fea63697460c665e8b05b5eaf4aed3abdbd898b7d464736f6c63430008110033",
  "immutableReferences": {},
  "source": "//SPDX-License-Identifier:MIT\r\npragma solidity 0.8.17;\r\n\r\nimport \"./RoleHelper.sol\";\r\ncontract FishermanRole{\r\n    using RoleHelper for RoleHelper.Role;\r\n\r\n    event FishermanAdded(address indexed account);\r\n    event FishermanRemoved(address indexed account);\r\n\r\n    RoleHelper.Role private Fishermen;\r\n\r\n    constructor(){\r\n        _addFisherman(msg.sender);\r\n    }\r\n\r\n    modifier onlyFisherman(){\r\n        require(isFisherman(msg.sender),\"Not a fisher man\");\r\n        _;\r\n    }\r\n\r\n    function isFisherman(address account) public view returns(bool){\r\n        return Fishermen.has(account);\r\n    }\r\n\r\n    function addFisherman(address account) public {\r\n        _addFisherman(account);\r\n    }\r\n\r\n    function renounceFisherman() public{\r\n        _removeFisherman(msg.sender);\r\n    }\r\n    function _addFisherman(address account) internal {\r\n        Fishermen.add(account);\r\n        emit FishermanAdded(account);\r\n    }\r\n\r\n    function _removeFisherman(address account) internal{\r\n        Fishermen.remove(account);\r\n        emit FishermanRemoved(account);\r\n    }\r\n\r\n}",
  "sourcePath": "E:\\FishTrack_N1\\contracts\\tunahelper\\FishermanRole.sol",
  "compiler": {
    "name": "solc",
    "version": "0.8.17+commit.8df45f5f.Emscripten.clang"
  },
  "schemaVersion": "3.4.9",
  "updatedAt": "2022-10-14T07:10:49.784Z",
  "devdoc": {
    "kind": "dev",
    "methods": {},
    "version": 1
  },
  "userdoc": {
    "kind": "user",
    "methods": {},
    "version": 1
  }
}