{
  "contractName": "Gateway",
  "abi": [
    {
      "inputs": [],
      "stateMutability": "payable",
      "type": "constructor",
      "payable": true
    },
    {
      "anonymous": false,
      "inputs": [
        {
          "indexed": false,
          "internalType": "uint256",
          "name": "upc",
          "type": "uint256"
        }
      ],
      "name": "Audited",
      "type": "event"
    },
    {
      "anonymous": false,
      "inputs": [
        {
          "indexed": false,
          "internalType": "uint256",
          "name": "upc",
          "type": "uint256"
        }
      ],
      "name": "Bought",
      "type": "event"
    },
    {
      "anonymous": false,
      "inputs": [
        {
          "indexed": false,
          "internalType": "uint256",
          "name": "upc",
          "type": "uint256"
        }
      ],
      "name": "Caught",
      "type": "event"
    },
    {
      "anonymous": false,
      "inputs": [
        {
          "indexed": true,
          "internalType": "address",
          "name": "account",
          "type": "address"
        }
      ],
      "name": "FishermanAdded",
      "type": "event"
    },
    {
      "anonymous": false,
      "inputs": [
        {
          "indexed": true,
          "internalType": "address",
          "name": "account",
          "type": "address"
        }
      ],
      "name": "FishermanRemoved",
      "type": "event"
    },
    {
      "anonymous": false,
      "inputs": [
        {
          "indexed": false,
          "internalType": "uint256",
          "name": "upc",
          "type": "uint256"
        }
      ],
      "name": "Recorded",
      "type": "event"
    },
    {
      "anonymous": false,
      "inputs": [
        {
          "indexed": false,
          "internalType": "address",
          "name": "account",
          "type": "address"
        }
      ],
      "name": "RegulatorAdded",
      "type": "event"
    },
    {
      "anonymous": false,
      "inputs": [
        {
          "indexed": false,
          "internalType": "address",
          "name": "account",
          "type": "address"
        }
      ],
      "name": "RegulatorRemvoed",
      "type": "event"
    },
    {
      "anonymous": false,
      "inputs": [
        {
          "indexed": false,
          "internalType": "address",
          "name": "account",
          "type": "address"
        }
      ],
      "name": "RestaurantAdded",
      "type": "event"
    },
    {
      "anonymous": false,
      "inputs": [
        {
          "indexed": false,
          "internalType": "address",
          "name": "account",
          "type": "address"
        }
      ],
      "name": "RestaurantRemvoed",
      "type": "event"
    },
    {
      "anonymous": false,
      "inputs": [
        {
          "indexed": true,
          "internalType": "address",
          "name": "oldOwner",
          "type": "address"
        },
        {
          "indexed": true,
          "internalType": "address",
          "name": "newOwner",
          "type": "address"
        }
      ],
      "name": "TransferOwnership",
      "type": "event"
    },
    {
      "inputs": [
        {
          "internalType": "address",
          "name": "account",
          "type": "address"
        }
      ],
      "name": "addFisherman",
      "outputs": [],
      "stateMutability": "nonpayable",
      "type": "function"
    },
    {
      "inputs": [
        {
          "internalType": "address",
          "name": "account",
          "type": "address"
        }
      ],
      "name": "addRegulator",
      "outputs": [],
      "stateMutability": "nonpayable",
      "type": "function"
    },
    {
      "inputs": [
        {
          "internalType": "address",
          "name": "account",
          "type": "address"
        }
      ],
      "name": "addRestaurant",
      "outputs": [],
      "stateMutability": "nonpayable",
      "type": "function"
    },
    {
      "inputs": [
        {
          "internalType": "uint256",
          "name": "_upc",
          "type": "uint256"
        },
        {
          "internalType": "string",
          "name": "_auditStatus",
          "type": "string"
        }
      ],
      "name": "auditTuna",
      "outputs": [],
      "stateMutability": "nonpayable",
      "type": "function"
    },
    {
      "inputs": [
        {
          "internalType": "uint256",
          "name": "_upc",
          "type": "uint256"
        },
        {
          "internalType": "uint256",
          "name": "_price",
          "type": "uint256"
        }
      ],
      "name": "buyTuna",
      "outputs": [],
      "stateMutability": "payable",
      "type": "function",
      "payable": true
    },
    {
      "inputs": [
        {
          "internalType": "uint256",
          "name": "_upc",
          "type": "uint256"
        },
        {
          "internalType": "address",
          "name": "_originFishermanID",
          "type": "address"
        },
        {
          "internalType": "string",
          "name": "_originCoastLocation",
          "type": "string"
        }
      ],
      "name": "catchTuna",
      "outputs": [],
      "stateMutability": "nonpayable",
      "type": "function"
    },
    {
      "inputs": [
        {
          "internalType": "address",
          "name": "account",
          "type": "address"
        }
      ],
      "name": "isFisherman",
      "outputs": [
        {
          "internalType": "bool",
          "name": "",
          "type": "bool"
        }
      ],
      "stateMutability": "view",
      "type": "function",
      "constant": true
    },
    {
      "inputs": [],
      "name": "isOwner",
      "outputs": [
        {
          "internalType": "bool",
          "name": "",
          "type": "bool"
        }
      ],
      "stateMutability": "view",
      "type": "function",
      "constant": true
    },
    {
      "inputs": [
        {
          "internalType": "address",
          "name": "account",
          "type": "address"
        }
      ],
      "name": "isRegulator",
      "outputs": [
        {
          "internalType": "bool",
          "name": "",
          "type": "bool"
        }
      ],
      "stateMutability": "view",
      "type": "function",
      "constant": true
    },
    {
      "inputs": [
        {
          "internalType": "address",
          "name": "account",
          "type": "address"
        }
      ],
      "name": "isRestaurant",
      "outputs": [
        {
          "internalType": "bool",
          "name": "",
          "type": "bool"
        }
      ],
      "stateMutability": "view",
      "type": "function",
      "constant": true
    },
    {
      "inputs": [],
      "name": "kill",
      "outputs": [],
      "stateMutability": "nonpayable",
      "type": "function"
    },
    {
      "inputs": [],
      "name": "owner",
      "outputs": [
        {
          "internalType": "address",
          "name": "",
          "type": "address"
        }
      ],
      "stateMutability": "view",
      "type": "function",
      "constant": true
    },
    {
      "inputs": [
        {
          "internalType": "uint256",
          "name": "_upc",
          "type": "uint256"
        }
      ],
      "name": "queryTuna",
      "outputs": [
        {
          "internalType": "address",
          "name": "ownerID",
          "type": "address"
        },
        {
          "internalType": "string",
          "name": "originCoastLocation",
          "type": "string"
        },
        {
          "internalType": "string",
          "name": "tunaNotes",
          "type": "string"
        },
        {
          "internalType": "uint256",
          "name": "tunaPrice",
          "type": "uint256"
        },
        {
          "internalType": "enum Tracking.State",
          "name": "tunaState",
          "type": "uint8"
        },
        {
          "internalType": "address",
          "name": "regulatorID",
          "type": "address"
        },
        {
          "internalType": "string",
          "name": "auditStatus",
          "type": "string"
        }
      ],
      "stateMutability": "view",
      "type": "function",
      "constant": true
    },
    {
      "inputs": [
        {
          "internalType": "uint256",
          "name": "_upc",
          "type": "uint256"
        },
        {
          "internalType": "uint256",
          "name": "_price",
          "type": "uint256"
        },
        {
          "internalType": "string",
          "name": "_tunaNotes",
          "type": "string"
        }
      ],
      "name": "recordTuna",
      "outputs": [],
      "stateMutability": "nonpayable",
      "type": "function"
    },
    {
      "inputs": [
        {
          "internalType": "address",
          "name": "account",
          "type": "address"
        }
      ],
      "name": "removeRegulator",
      "outputs": [],
      "stateMutability": "nonpayable",
      "type": "function"
    },
    {
      "inputs": [
        {
          "internalType": "address",
          "name": "account",
          "type": "address"
        }
      ],
      "name": "removeRestaurant",
      "outputs": [],
      "stateMutability": "nonpayable",
      "type": "function"
    },
    {
      "inputs": [],
      "name": "renounceFisherman",
      "outputs": [],
      "stateMutability": "nonpayable",
      "type": "function"
    },
    {
      "inputs": [],
      "name": "renounceOwnership",
      "outputs": [],
      "stateMutability": "nonpayable",
      "type": "function"
    },
    {
      "inputs": [],
      "name": "supplyChainOwner",
      "outputs": [
        {
          "internalType": "address",
          "name": "",
          "type": "address"
        }
      ],
      "stateMutability": "view",
      "type": "function",
      "constant": true
    },
    {
      "inputs": [
        {
          "internalType": "address",
          "name": "newOwner",
          "type": "address"
        }
      ],
      "name": "transferOwnership",
      "outputs": [],
      "stateMutability": "nonpayable",
      "type": "function"
    },
    {
      "inputs": [
        {
          "internalType": "address",
          "name": "newOwner",
          "type": "address"
        }
      ],
      "name": "transferOwner",
      "outputs": [],
      "stateMutability": "nonpayable",
      "type": "function"
    }
  ],
  "bytecode": "0x608060405262000015336200010360201b60201c565b62000026336200016460201b60201c565b6200003733620001bb60201b60201c565b600160048190555033600860006101000a81548173ffffffffffffffffffffffffffffffffffffffff021916908373ffffffffffffffffffffffffffffffffffffffff160217905550600860009054906101000a900473ffffffffffffffffffffffffffffffffffffffff1673ffffffffffffffffffffffffffffffffffffffff16600073ffffffffffffffffffffffffffffffffffffffff167f5c486528ec3e3f0ea91181cff8116f02bfa350e03b8b6f12e00765adbb5af85c60405160405180910390a3620003bb565b6200011e8160006200021260201b620014711790919060201c565b8073ffffffffffffffffffffffffffffffffffffffff167fed8c08737b37aef2af953c3b930fa5e3f9a03f87a0a5a1e78eea37cdcbea99fc60405160405180910390a250565b6200017f8160016200021260201b620014711790919060201c565b7f2860b5ba44f983f8f363ee6eeb3c24cbca3096803fbdd5129b9e253f01cac07681604051620001b091906200039e565b60405180910390a150565b620001d68160026200021260201b620014711790919060201c565b7f30fdfb5b96c8f1d53ce2c2df0c23849ad3b9a86a4b0aae4303d182d635593c48816040516200020791906200039e565b60405180910390a150565b600073ffffffffffffffffffffffffffffffffffffffff168173ffffffffffffffffffffffffffffffffffffffff16036200024c57600080fd5b6200025e8282620002c760201b60201c565b156200026957600080fd5b60018260000160008373ffffffffffffffffffffffffffffffffffffffff1673ffffffffffffffffffffffffffffffffffffffff16815260200190815260200160002060006101000a81548160ff0219169083151502179055505050565b60008073ffffffffffffffffffffffffffffffffffffffff168273ffffffffffffffffffffffffffffffffffffffff16036200030257600080fd5b8260000160008373ffffffffffffffffffffffffffffffffffffffff1673ffffffffffffffffffffffffffffffffffffffff16815260200190815260200160002060009054906101000a900460ff16905092915050565b600073ffffffffffffffffffffffffffffffffffffffff82169050919050565b6000620003868262000359565b9050919050565b620003988162000379565b82525050565b6000602082019050620003b560008301846200038d565b92915050565b61265980620003cb6000396000f3fe60806040526004361061012a5760003560e01c80638f32d59b116100ab578063ccd3948b1161006f578063ccd3948b146103a8578063d9033994146103d1578063df1bf686146103fa578063e2120f4f14610416578063f2fde38b1461043f578063f868e6ba146104685761012a565b80638f32d59b146102d75780639c8a893814610302578063a5aab8531461032b578063ac63f3c714610354578063ae555cfa1461037d5761012a565b806354fc9169116100f257806354fc9169146101d85780635ecf35a014610215578063715018a6146102585780638da5cb5b1461026f5780638e673a2d1461029a5761012a565b806307aa94d61461012f578063328a8cc414610146578063379f5fed1461016f57806341c0e1b5146101985780634fb2e45d146101af575b600080fd5b34801561013b57600080fd5b506101446104a5565b005b34801561015257600080fd5b5061016d600480360381019061016891906119ae565b6104b0565b005b34801561017b57600080fd5b50610196600480360381019061019191906119ae565b6104bc565b005b3480156101a457600080fd5b506101ad6104c8565b005b3480156101bb57600080fd5b506101d660048036038101906101d191906119ae565b6104f2565b005b3480156101e457600080fd5b506101ff60048036038101906101fa91906119ae565b61050f565b60405161020c91906119f6565b60405180910390f35b34801561022157600080fd5b5061023c60048036038101906102379190611a47565b61052c565b60405161024f9796959493929190611b99565b60405180910390f35b34801561026457600080fd5b5061026d6107e0565b005b34801561027b57600080fd5b506102846108b2565b6040516102919190611c1d565b60405180910390f35b3480156102a657600080fd5b506102c160048036038101906102bc91906119ae565b6108dc565b6040516102ce91906119f6565b60405180910390f35b3480156102e357600080fd5b506102ec6108f9565b6040516102f991906119f6565b60405180910390f35b34801561030e57600080fd5b50610329600480360381019061032491906119ae565b610951565b005b34801561033757600080fd5b50610352600480360381019061034d9190611d6d565b61095d565b005b34801561036057600080fd5b5061037b600480360381019061037691906119ae565b610c82565b005b34801561038957600080fd5b50610392610c8e565b60405161039f9190611c1d565b60405180910390f35b3480156103b457600080fd5b506103cf60048036038101906103ca91906119ae565b610cb4565b005b3480156103dd57600080fd5b506103f860048036038101906103f39190611ddc565b610cc0565b005b610414600480360381019061040f9190611e4b565b610ef4565b005b34801561042257600080fd5b5061043d60048036038101906104389190611e8b565b611270565b005b34801561044b57600080fd5b50610466600480360381019061046191906119ae565b611437565b005b34801561047457600080fd5b5061048f600480360381019061048a91906119ae565b611454565b60405161049c91906119f6565b60405180910390f35b6104ae3361151c565b565b6104b981611576565b50565b6104c5816115c4565b50565b6104d06108f9565b6104d957600080fd5b3373ffffffffffffffffffffffffffffffffffffffff16ff5b6104fa6108f9565b61050357600080fd5b61050c81611437565b50565b600061052582600161161290919063ffffffff16565b9050919050565b6000606080600080600060606006600089815260200190815260200160002060010160009054906101000a900473ffffffffffffffffffffffffffffffffffffffff16600660008a8152602001908152602001600020600301600660008b8152602001908152602001600020600401600660008c815260200190815260200160002060050154600660008d815260200190815260200160002060060160009054906101000a900460ff16600660008e815260200190815260200160002060060160019054906101000a900473ffffffffffffffffffffffffffffffffffffffff16600660008f815260200190815260200160002060070185805461062f90611f16565b80601f016020809104026020016040519081016040528092919081815260200182805461065b90611f16565b80156106a85780601f1061067d576101008083540402835291602001916106a8565b820191906000526020600020905b81548152906001019060200180831161068b57829003601f168201915b505050505095508480546106bb90611f16565b80601f01602080910402602001604051908101604052809291908181526020018280546106e790611f16565b80156107345780601f1061070957610100808354040283529160200191610734565b820191906000526020600020905b81548152906001019060200180831161071757829003601f168201915b5050505050945080805461074790611f16565b80601f016020809104026020016040519081016040528092919081815260200182805461077390611f16565b80156107c05780601f10610795576101008083540402835291602001916107c0565b820191906000526020600020905b8154815290600101906020018083116107a357829003601f168201915b505050505090509650965096509650965096509650919395979092949650565b6107e86108f9565b6107f157600080fd5b600073ffffffffffffffffffffffffffffffffffffffff16600860009054906101000a900473ffffffffffffffffffffffffffffffffffffffff1673ffffffffffffffffffffffffffffffffffffffff167f5c486528ec3e3f0ea91181cff8116f02bfa350e03b8b6f12e00765adbb5af85c60405160405180910390a36000600860006101000a81548173ffffffffffffffffffffffffffffffffffffffff021916908373ffffffffffffffffffffffffffffffffffffffff160217905550565b6000600860009054906101000a900473ffffffffffffffffffffffffffffffffffffffff16905090565b60006108f282600261161290919063ffffffff16565b9050919050565b6000600860009054906101000a900473ffffffffffffffffffffffffffffffffffffffff1673ffffffffffffffffffffffffffffffffffffffff163373ffffffffffffffffffffffffffffffffffffffff1614905090565b61095a816116a3565b50565b61096633611454565b6109a5576040517f08c379a000000000000000000000000000000000000000000000000000000000815260040161099c90611f93565b60405180910390fd5b6040518061014001604052808481526020013373ffffffffffffffffffffffffffffffffffffffff1681526020018373ffffffffffffffffffffffffffffffffffffffff1681526020018281526020016040518060200160405280600081525081526020016000815260200160006003811115610a2557610a24611b22565b5b8152602001600073ffffffffffffffffffffffffffffffffffffffff168152602001604051806020016040528060008152508152602001600073ffffffffffffffffffffffffffffffffffffffff16815250600660008581526020019081526020016000206000820151816000015560208201518160010160006101000a81548173ffffffffffffffffffffffffffffffffffffffff021916908373ffffffffffffffffffffffffffffffffffffffff16021790555060408201518160020160006101000a81548173ffffffffffffffffffffffffffffffffffffffff021916908373ffffffffffffffffffffffffffffffffffffffff1602179055506060820151816003019081610b37919061215f565b506080820151816004019081610b4d919061215f565b5060a0820151816005015560c08201518160060160006101000a81548160ff02191690836003811115610b8357610b82611b22565b5b021790555060e08201518160060160016101000a81548173ffffffffffffffffffffffffffffffffffffffff021916908373ffffffffffffffffffffffffffffffffffffffff160217905550610100820151816007019081610be5919061215f565b506101208201518160080160006101000a81548173ffffffffffffffffffffffffffffffffffffffff021916908373ffffffffffffffffffffffffffffffffffffffff1602179055509050506001600454610c409190612260565b6004819055507f529ae736ca8a70c286dd44931d886d4fd0b014c75625a0bc20e22ffbd547703f83604051610c759190612294565b60405180910390a1505050565b610c8b816116fd565b50565b600360009054906101000a900473ffffffffffffffffffffffffffffffffffffffff1681565b610cbd8161174b565b50565b8260006003811115610cd557610cd4611b22565b5b6006600083815260200190815260200160002060060160009054906101000a900460ff166003811115610d0b57610d0a611b22565b5b14610d4b576040517f08c379a0000000000000000000000000000000000000000000000000000000008152600401610d42906122fb565b60405180910390fd5b610d5433611454565b610d93576040517f08c379a0000000000000000000000000000000000000000000000000000000008152600401610d8a90611f93565b60405180910390fd5b6006600085815260200190815260200160002060010160009054906101000a900473ffffffffffffffffffffffffffffffffffffffff168073ffffffffffffffffffffffffffffffffffffffff163373ffffffffffffffffffffffffffffffffffffffff1614610e38576040517f08c379a0000000000000000000000000000000000000000000000000000000008152600401610e2f9061238d565b60405180910390fd5b82600660008781526020019081526020016000206004019081610e5b919061215f565b5083600660008781526020019081526020016000206005018190555060016006600087815260200190815260200160002060060160006101000a81548160ff02191690836003811115610eb157610eb0611b22565b5b02179055507f3418577b9d6ee1f29ecaa9fa9bd19b32163a53ba06af0e8bb173490ff7cdf40b85604051610ee59190612294565b60405180910390a15050505050565b8160026003811115610f0957610f08611b22565b5b6006600083815260200190815260200160002060060160009054906101000a900460ff166003811115610f3f57610f3e611b22565b5b14610f7f576040517f08c379a0000000000000000000000000000000000000000000000000000000008152600401610f76906123f9565b60405180910390fd5b610f88336108dc565b610fc7576040517f08c379a0000000000000000000000000000000000000000000000000000000008152600401610fbe90612465565b60405180910390fd5b600660008481526020019081526020016000206005015480341015611021576040517f08c379a0000000000000000000000000000000000000000000000000000000008152600401611018906124f7565b60405180910390fd5b836000600660008381526020019081526020016000206005015490506000813461104b9190612517565b90506006600084815260200190815260200160002060080160009054906101000a900473ffffffffffffffffffffffffffffffffffffffff1673ffffffffffffffffffffffffffffffffffffffff166108fc829081150290604051600060405180830381858888f193505050501580156110c9573d6000803e3d6000fd5b506006600088815260200190815260200160002060010160009054906101000a900473ffffffffffffffffffffffffffffffffffffffff1673ffffffffffffffffffffffffffffffffffffffff166108fc879081150290604051600060405180830381858888f19350505050158015611146573d6000803e3d6000fd5b50336006600089815260200190815260200160002060080160006101000a81548173ffffffffffffffffffffffffffffffffffffffff021916908373ffffffffffffffffffffffffffffffffffffffff160217905550336006600089815260200190815260200160002060010160006101000a81548173ffffffffffffffffffffffffffffffffffffffff021916908373ffffffffffffffffffffffffffffffffffffffff16021790555060036006600089815260200190815260200160002060060160006101000a81548160ff0219169083600381111561122b5761122a611b22565b5b02179055507f4e08ba899977cf7d4c2964bce71c6b9a7ef76ee5166a4c1249a1e08016e33ef18760405161125f9190612294565b60405180910390a150505050505050565b816001600381111561128557611284611b22565b5b6006600083815260200190815260200160002060060160009054906101000a900460ff1660038111156112bb576112ba611b22565b5b146112fb576040517f08c379a00000000000000000000000000000000000000000000000000000000081526004016112f290612597565b60405180910390fd5b6113043361050f565b611343576040517f08c379a000000000000000000000000000000000000000000000000000000000815260040161133a90612603565b60405180910390fd5b336006600085815260200190815260200160002060060160016101000a81548173ffffffffffffffffffffffffffffffffffffffff021916908373ffffffffffffffffffffffffffffffffffffffff160217905550816006600085815260200190815260200160002060070190816113bb919061215f565b5060026006600085815260200190815260200160002060060160006101000a81548160ff021916908360038111156113f6576113f5611b22565b5b02179055507f79687301d55ce8c07d357ae3f6ca0cfb94888028f8a37faf94dd48f47e961eec8360405161142a9190612294565b60405180910390a1505050565b61143f6108f9565b61144857600080fd5b61145181611799565b50565b600061146a82600061161290919063ffffffff16565b9050919050565b600073ffffffffffffffffffffffffffffffffffffffff168173ffffffffffffffffffffffffffffffffffffffff16036114aa57600080fd5b6114b48282611612565b156114be57600080fd5b60018260000160008373ffffffffffffffffffffffffffffffffffffffff1673ffffffffffffffffffffffffffffffffffffffff16815260200190815260200160002060006101000a81548160ff0219169083151502179055505050565b61153081600061189290919063ffffffff16565b8073ffffffffffffffffffffffffffffffffffffffff167ff56c56653b8d7dabb804d2c9d05ae558d0ed3825cdf8922f4622e49985f4843760405160405180910390a250565b61158a81600261147190919063ffffffff16565b7f30fdfb5b96c8f1d53ce2c2df0c23849ad3b9a86a4b0aae4303d182d635593c48816040516115b99190611c1d565b60405180910390a150565b6115d881600161189290919063ffffffff16565b7f07a1fafad8da8b23bc43cd8efc42dad59953ffeb41b9db6abadbaaea46554332816040516116079190611c1d565b60405180910390a150565b60008073ffffffffffffffffffffffffffffffffffffffff168273ffffffffffffffffffffffffffffffffffffffff160361164c57600080fd5b8260000160008373ffffffffffffffffffffffffffffffffffffffff1673ffffffffffffffffffffffffffffffffffffffff16815260200190815260200160002060009054906101000a900460ff16905092915050565b6116b781600061147190919063ffffffff16565b8073ffffffffffffffffffffffffffffffffffffffff167fed8c08737b37aef2af953c3b930fa5e3f9a03f87a0a5a1e78eea37cdcbea99fc60405160405180910390a250565b61171181600161147190919063ffffffff16565b7f2860b5ba44f983f8f363ee6eeb3c24cbca3096803fbdd5129b9e253f01cac076816040516117409190611c1d565b60405180910390a150565b61175f81600261189290919063ffffffff16565b7f8c3267dcb47d9fd51c05500e000551f5a7f87b6756403ea7aca568668520367f8160405161178e9190611c1d565b60405180910390a150565b600073ffffffffffffffffffffffffffffffffffffffff168173ffffffffffffffffffffffffffffffffffffffff16036117d257600080fd5b8073ffffffffffffffffffffffffffffffffffffffff16600860009054906101000a900473ffffffffffffffffffffffffffffffffffffffff1673ffffffffffffffffffffffffffffffffffffffff167f5c486528ec3e3f0ea91181cff8116f02bfa350e03b8b6f12e00765adbb5af85c60405160405180910390a380600860006101000a81548173ffffffffffffffffffffffffffffffffffffffff021916908373ffffffffffffffffffffffffffffffffffffffff16021790555050565b600073ffffffffffffffffffffffffffffffffffffffff168173ffffffffffffffffffffffffffffffffffffffff16036118cb57600080fd5b6118d58282611612565b6118de57600080fd5b60008260000160008373ffffffffffffffffffffffffffffffffffffffff1673ffffffffffffffffffffffffffffffffffffffff16815260200190815260200160002060006101000a81548160ff0219169083151502179055505050565b6000604051905090565b600080fd5b600080fd5b600073ffffffffffffffffffffffffffffffffffffffff82169050919050565b600061197b82611950565b9050919050565b61198b81611970565b811461199657600080fd5b50565b6000813590506119a881611982565b92915050565b6000602082840312156119c4576119c3611946565b5b60006119d284828501611999565b91505092915050565b60008115159050919050565b6119f0816119db565b82525050565b6000602082019050611a0b60008301846119e7565b92915050565b6000819050919050565b611a2481611a11565b8114611a2f57600080fd5b50565b600081359050611a4181611a1b565b92915050565b600060208284031215611a5d57611a5c611946565b5b6000611a6b84828501611a32565b91505092915050565b611a7d81611970565b82525050565b600081519050919050565b600082825260208201905092915050565b60005b83811015611abd578082015181840152602081019050611aa2565b60008484015250505050565b6000601f19601f8301169050919050565b6000611ae582611a83565b611aef8185611a8e565b9350611aff818560208601611a9f565b611b0881611ac9565b840191505092915050565b611b1c81611a11565b82525050565b7f4e487b7100000000000000000000000000000000000000000000000000000000600052602160045260246000fd5b60048110611b6257611b61611b22565b5b50565b6000819050611b7382611b51565b919050565b6000611b8382611b65565b9050919050565b611b9381611b78565b82525050565b600060e082019050611bae600083018a611a74565b8181036020830152611bc08189611ada565b90508181036040830152611bd48188611ada565b9050611be36060830187611b13565b611bf06080830186611b8a565b611bfd60a0830185611a74565b81810360c0830152611c0f8184611ada565b905098975050505050505050565b6000602082019050611c326000830184611a74565b92915050565b600080fd5b600080fd5b7f4e487b7100000000000000000000000000000000000000000000000000000000600052604160045260246000fd5b611c7a82611ac9565b810181811067ffffffffffffffff82111715611c9957611c98611c42565b5b80604052505050565b6000611cac61193c565b9050611cb88282611c71565b919050565b600067ffffffffffffffff821115611cd857611cd7611c42565b5b611ce182611ac9565b9050602081019050919050565b82818337600083830152505050565b6000611d10611d0b84611cbd565b611ca2565b905082815260208101848484011115611d2c57611d2b611c3d565b5b611d37848285611cee565b509392505050565b600082601f830112611d5457611d53611c38565b5b8135611d64848260208601611cfd565b91505092915050565b600080600060608486031215611d8657611d85611946565b5b6000611d9486828701611a32565b9350506020611da586828701611999565b925050604084013567ffffffffffffffff811115611dc657611dc561194b565b5b611dd286828701611d3f565b9150509250925092565b600080600060608486031215611df557611df4611946565b5b6000611e0386828701611a32565b9350506020611e1486828701611a32565b925050604084013567ffffffffffffffff811115611e3557611e3461194b565b5b611e4186828701611d3f565b9150509250925092565b60008060408385031215611e6257611e61611946565b5b6000611e7085828601611a32565b9250506020611e8185828601611a32565b9150509250929050565b60008060408385031215611ea257611ea1611946565b5b6000611eb085828601611a32565b925050602083013567ffffffffffffffff811115611ed157611ed061194b565b5b611edd85828601611d3f565b9150509250929050565b7f4e487b7100000000000000000000000000000000000000000000000000000000600052602260045260246000fd5b60006002820490506001821680611f2e57607f821691505b602082108103611f4157611f40611ee7565b5b50919050565b7f4e6f74206120666973686572206d616e00000000000000000000000000000000600082015250565b6000611f7d601083611a8e565b9150611f8882611f47565b602082019050919050565b60006020820190508181036000830152611fac81611f70565b9050919050565b60008190508160005260206000209050919050565b60006020601f8301049050919050565b600082821b905092915050565b6000600883026120157fffffffffffffffffffffffffffffffffffffffffffffffffffffffffffffffff82611fd8565b61201f8683611fd8565b95508019841693508086168417925050509392505050565b6000819050919050565b600061205c61205761205284611a11565b612037565b611a11565b9050919050565b6000819050919050565b61207683612041565b61208a61208282612063565b848454611fe5565b825550505050565b600090565b61209f612092565b6120aa81848461206d565b505050565b5b818110156120ce576120c3600082612097565b6001810190506120b0565b5050565b601f821115612113576120e481611fb3565b6120ed84611fc8565b810160208510156120fc578190505b61211061210885611fc8565b8301826120af565b50505b505050565b600082821c905092915050565b600061213660001984600802612118565b1980831691505092915050565b600061214f8383612125565b9150826002028217905092915050565b61216882611a83565b67ffffffffffffffff81111561218157612180611c42565b5b61218b8254611f16565b6121968282856120d2565b600060209050601f8311600181146121c957600084156121b7578287015190505b6121c18582612143565b865550612229565b601f1984166121d786611fb3565b60005b828110156121ff578489015182556001820191506020850194506020810190506121da565b8683101561221c5784890151612218601f891682612125565b8355505b6001600288020188555050505b505050505050565b7f4e487b7100000000000000000000000000000000000000000000000000000000600052601160045260246000fd5b600061226b82611a11565b915061227683611a11565b925082820190508082111561228e5761228d612231565b5b92915050565b60006020820190506122a96000830184611b13565b92915050565b7f54756e61207374617465206973207374696c6c206e6f74206361756768740000600082015250565b60006122e5601e83611a8e565b91506122f0826122af565b602082019050919050565b60006020820190508181036000830152612314816122d8565b9050919050565b7f43616c6c657220766572696669636174696f6e20776173206e6f74207375636360008201527f65737366756c0000000000000000000000000000000000000000000000000000602082015250565b6000612377602683611a8e565b91506123828261231b565b604082019050919050565b600060208201905081810360008301526123a68161236a565b9050919050565b7f54756e61207374617465206973207374696c6c206e6f74206175646974656400600082015250565b60006123e3601f83611a8e565b91506123ee826123ad565b602082019050919050565b60006020820190508181036000830152612412816123d6565b9050919050565b7f4e6f7420612052657374617572616e7400000000000000000000000000000000600082015250565b600061244f601083611a8e565b915061245a82612419565b602082019050919050565b6000602082019050818103600083015261247e81612442565b9050919050565b7f496e73756666696369656e7420616d6f756e7420666f72207468652071756f7460008201527f6564207072696365000000000000000000000000000000000000000000000000602082015250565b60006124e1602883611a8e565b91506124ec82612485565b604082019050919050565b60006020820190508181036000830152612510816124d4565b9050919050565b600061252282611a11565b915061252d83611a11565b925082820390508181111561254557612544612231565b5b92915050565b7f54756e61207374617465206973207374696c6c206e6f74207265636f72646564600082015250565b6000612581602083611a8e565b915061258c8261254b565b602082019050919050565b600060208201905081810360008301526125b081612574565b9050919050565b7f4e6f74206120526567756c61746f720000000000000000000000000000000000600082015250565b60006125ed600f83611a8e565b91506125f8826125b7565b602082019050919050565b6000602082019050818103600083015261261c816125e0565b905091905056fea2646970667358221220475858cd88f9bc115ce023f9801a5b38829bdd897121cd5f42d61cca4029a75864736f6c63430008110033",
  "immutableReferences": {},
  "source": "//SPDX-License-Identifier:MIT\r\npragma solidity 0.8.17;\r\n\r\nimport \"../tunasupplychain/Tracking.sol\";\r\nimport \"./Admin.sol\";\r\ncontract Gateway is Tracking,Admin{\r\n    constructor() payable{\r\n\r\n    }\r\n\r\n    // function kill() public onlyOwner(){\r\n    //     selfdestruct(payable(msg.sender));\r\n    // }\r\n\r\n    function transferOwner(address newOwner) public onlyOwner(){\r\n        transferOwnership(newOwner);\r\n    }\r\n}",
  "sourcePath": "E:\\FishTrack_N1\\contracts\\tunagateway\\Gateway.sol",
  "compiler": {
    "name": "solc",
    "version": "0.8.17+commit.8df45f5f.Emscripten.clang"
  },
  "schemaVersion": "3.4.9",
  "updatedAt": "2022-10-14T07:10:53.073Z",
  "networkType": "ethereum",
  "devdoc": {
    "kind": "dev",
    "methods": {},
    "version": 1
  },
  "userdoc": {
    "kind": "user",
    "methods": {},
    "version": 1
  }
}