{
  "contractName": "RegulatorRole",
  "abi": [
    {
      "inputs": [],
      "stateMutability": "nonpayable",
      "type": "constructor"
    },
    {
      "anonymous": false,
      "inputs": [
        {
          "indexed": false,
          "internalType": "address",
          "name": "account",
          "type": "address"
        }
      ],
      "name": "RegulatorAdded",
      "type": "event"
    },
    {
      "anonymous": false,
      "inputs": [
        {
          "indexed": false,
          "internalType": "address",
          "name": "account",
          "type": "address"
        }
      ],
      "name": "RegulatorRemvoed",
      "type": "event"
    },
    {
      "inputs": [
        {
          "internalType": "address",
          "name": "account",
          "type": "address"
        }
      ],
      "name": "isRegulator",
      "outputs": [
        {
          "internalType": "bool",
          "name": "",
          "type": "bool"
        }
      ],
      "stateMutability": "view",
      "type": "function"
    },
    {
      "inputs": [
        {
          "internalType": "address",
          "name": "account",
          "type": "address"
        }
      ],
      "name": "addRegulator",
      "outputs": [],
      "stateMutability": "nonpayable",
      "type": "function"
    },
    {
      "inputs": [
        {
          "internalType": "address",
          "name": "account",
          "type": "address"
        }
      ],
      "name": "removeRegulator",
      "outputs": [],
      "stateMutability": "nonpayable",
      "type": "function"
    }
  ],
  "bytecode": "0x608060405234801561001057600080fd5b506100203361002560201b60201c565b610215565b61003d81600061007760201b6100e31790919060201c565b7f2860b5ba44f983f8f363ee6eeb3c24cbca3096803fbdd5129b9e253f01cac0768160405161006c91906101fa565b60405180910390a150565b600073ffffffffffffffffffffffffffffffffffffffff168173ffffffffffffffffffffffffffffffffffffffff16036100b057600080fd5b6100c0828261012860201b60201c565b156100ca57600080fd5b60018260000160008373ffffffffffffffffffffffffffffffffffffffff1673ffffffffffffffffffffffffffffffffffffffff16815260200190815260200160002060006101000a81548160ff0219169083151502179055505050565b60008073ffffffffffffffffffffffffffffffffffffffff168273ffffffffffffffffffffffffffffffffffffffff160361016257600080fd5b8260000160008373ffffffffffffffffffffffffffffffffffffffff1673ffffffffffffffffffffffffffffffffffffffff16815260200190815260200160002060009054906101000a900460ff16905092915050565b600073ffffffffffffffffffffffffffffffffffffffff82169050919050565b60006101e4826101b9565b9050919050565b6101f4816101d9565b82525050565b600060208201905061020f60008301846101eb565b92915050565b61048b806102246000396000f3fe608060405234801561001057600080fd5b50600436106100415760003560e01c8063379f5fed1461004657806354fc916914610062578063ac63f3c714610092575b600080fd5b610060600480360381019061005b91906103c8565b6100ae565b005b61007c600480360381019061007791906103c8565b6100ba565b6040516100899190610410565b60405180910390f35b6100ac60048036038101906100a791906103c8565b6100d7565b005b6100b78161018e565b50565b60006100d08260006101dc90919063ffffffff16565b9050919050565b6100e08161026d565b50565b600073ffffffffffffffffffffffffffffffffffffffff168173ffffffffffffffffffffffffffffffffffffffff160361011c57600080fd5b61012682826101dc565b1561013057600080fd5b60018260000160008373ffffffffffffffffffffffffffffffffffffffff1673ffffffffffffffffffffffffffffffffffffffff16815260200190815260200160002060006101000a81548160ff0219169083151502179055505050565b6101a28160006102bb90919063ffffffff16565b7f07a1fafad8da8b23bc43cd8efc42dad59953ffeb41b9db6abadbaaea46554332816040516101d1919061043a565b60405180910390a150565b60008073ffffffffffffffffffffffffffffffffffffffff168273ffffffffffffffffffffffffffffffffffffffff160361021657600080fd5b8260000160008373ffffffffffffffffffffffffffffffffffffffff1673ffffffffffffffffffffffffffffffffffffffff16815260200190815260200160002060009054906101000a900460ff16905092915050565b6102818160006100e390919063ffffffff16565b7f2860b5ba44f983f8f363ee6eeb3c24cbca3096803fbdd5129b9e253f01cac076816040516102b0919061043a565b60405180910390a150565b600073ffffffffffffffffffffffffffffffffffffffff168173ffffffffffffffffffffffffffffffffffffffff16036102f457600080fd5b6102fe82826101dc565b61030757600080fd5b60008260000160008373ffffffffffffffffffffffffffffffffffffffff1673ffffffffffffffffffffffffffffffffffffffff16815260200190815260200160002060006101000a81548160ff0219169083151502179055505050565b600080fd5b600073ffffffffffffffffffffffffffffffffffffffff82169050919050565b60006103958261036a565b9050919050565b6103a58161038a565b81146103b057600080fd5b50565b6000813590506103c28161039c565b92915050565b6000602082840312156103de576103dd610365565b5b60006103ec848285016103b3565b91505092915050565b60008115159050919050565b61040a816103f5565b82525050565b60006020820190506104256000830184610401565b92915050565b6104348161038a565b82525050565b600060208201905061044f600083018461042b565b9291505056fea26469706673582212200145ec1783fa1c3baa463515c41c7c8c15313bf1db37d70ccff94c8bee7400b264736f6c63430008110033",
  "immutableReferences": {},
  "source": "//SPDX-License-Identifier:MIT\r\npragma solidity 0.8.17;\r\n\r\nimport \"./RoleHelper.sol\";\r\ncontract RegulatorRole{\r\n\r\n    using RoleHelper for RoleHelper.Role;\r\n\r\n    RoleHelper.Role private Regulator;\r\n\r\n    event RegulatorAdded(address account);\r\n    event RegulatorRemvoed(address account);\r\n\r\n    constructor() {\r\n        _addRegulatorRole(msg.sender);\r\n    }\r\n\r\n    modifier onlyRegulator(){\r\n        require(isRegulator(msg.sender),\"Not a Regulator\");\r\n        _;\r\n    }\r\n\r\n    function isRegulator(address account) public view returns(bool){\r\n        return Regulator.has(account);\r\n    }\r\n\r\n\r\n    function addRegulator(address account) public {\r\n        _addRegulatorRole(account);\r\n    }\r\n\r\n    function removeRegulator(address account) public {\r\n        _removeRegulator(account);\r\n    }\r\n     \r\n    function _addRegulatorRole(address account) internal {\r\n            Regulator.add(account);\r\n            emit RegulatorAdded(account);\r\n\r\n    }\r\n\r\n    function _removeRegulator(address account) internal {\r\n        Regulator.remove(account);\r\n        emit RegulatorRemvoed(account);\r\n    }\r\n}",
  "sourcePath": "E:\\FishTrack_N1\\contracts\\tunahelper\\RegulatorRole.sol",
  "compiler": {
    "name": "solc",
    "version": "0.8.17+commit.8df45f5f.Emscripten.clang"
  },
  "schemaVersion": "3.4.9",
  "updatedAt": "2022-10-14T07:10:49.791Z",
  "devdoc": {
    "kind": "dev",
    "methods": {},
    "version": 1
  },
  "userdoc": {
    "kind": "user",
    "methods": {},
    "version": 1
  }
}