{
  "contractName": "RestaurantRole",
  "abi": [
    {
      "inputs": [],
      "stateMutability": "nonpayable",
      "type": "constructor"
    },
    {
      "anonymous": false,
      "inputs": [
        {
          "indexed": false,
          "internalType": "address",
          "name": "account",
          "type": "address"
        }
      ],
      "name": "RestaurantAdded",
      "type": "event"
    },
    {
      "anonymous": false,
      "inputs": [
        {
          "indexed": false,
          "internalType": "address",
          "name": "account",
          "type": "address"
        }
      ],
      "name": "RestaurantRemvoed",
      "type": "event"
    },
    {
      "inputs": [
        {
          "internalType": "address",
          "name": "account",
          "type": "address"
        }
      ],
      "name": "isRestaurant",
      "outputs": [
        {
          "internalType": "bool",
          "name": "",
          "type": "bool"
        }
      ],
      "stateMutability": "view",
      "type": "function"
    },
    {
      "inputs": [
        {
          "internalType": "address",
          "name": "account",
          "type": "address"
        }
      ],
      "name": "addRestaurant",
      "outputs": [],
      "stateMutability": "nonpayable",
      "type": "function"
    },
    {
      "inputs": [
        {
          "internalType": "address",
          "name": "account",
          "type": "address"
        }
      ],
      "name": "removeRestaurant",
      "outputs": [],
      "stateMutability": "nonpayable",
      "type": "function"
    }
  ],
  "bytecode": "0x608060405234801561001057600080fd5b506100203361002560201b60201c565b610215565b61003d81600061007760201b6100e31790919060201c565b7f30fdfb5b96c8f1d53ce2c2df0c23849ad3b9a86a4b0aae4303d182d635593c488160405161006c91906101fa565b60405180910390a150565b600073ffffffffffffffffffffffffffffffffffffffff168173ffffffffffffffffffffffffffffffffffffffff16036100b057600080fd5b6100c0828261012860201b60201c565b156100ca57600080fd5b60018260000160008373ffffffffffffffffffffffffffffffffffffffff1673ffffffffffffffffffffffffffffffffffffffff16815260200190815260200160002060006101000a81548160ff0219169083151502179055505050565b60008073ffffffffffffffffffffffffffffffffffffffff168273ffffffffffffffffffffffffffffffffffffffff160361016257600080fd5b8260000160008373ffffffffffffffffffffffffffffffffffffffff1673ffffffffffffffffffffffffffffffffffffffff16815260200190815260200160002060009054906101000a900460ff16905092915050565b600073ffffffffffffffffffffffffffffffffffffffff82169050919050565b60006101e4826101b9565b9050919050565b6101f4816101d9565b82525050565b600060208201905061020f60008301846101eb565b92915050565b61048b806102246000396000f3fe608060405234801561001057600080fd5b50600436106100415760003560e01c8063328a8cc4146100465780638e673a2d14610062578063ccd3948b14610092575b600080fd5b610060600480360381019061005b91906103c8565b6100ae565b005b61007c600480360381019061007791906103c8565b6100ba565b6040516100899190610410565b60405180910390f35b6100ac60048036038101906100a791906103c8565b6100d7565b005b6100b78161018e565b50565b60006100d08260006101dc90919063ffffffff16565b9050919050565b6100e08161026d565b50565b600073ffffffffffffffffffffffffffffffffffffffff168173ffffffffffffffffffffffffffffffffffffffff160361011c57600080fd5b61012682826101dc565b1561013057600080fd5b60018260000160008373ffffffffffffffffffffffffffffffffffffffff1673ffffffffffffffffffffffffffffffffffffffff16815260200190815260200160002060006101000a81548160ff0219169083151502179055505050565b6101a28160006100e390919063ffffffff16565b7f30fdfb5b96c8f1d53ce2c2df0c23849ad3b9a86a4b0aae4303d182d635593c48816040516101d1919061043a565b60405180910390a150565b60008073ffffffffffffffffffffffffffffffffffffffff168273ffffffffffffffffffffffffffffffffffffffff160361021657600080fd5b8260000160008373ffffffffffffffffffffffffffffffffffffffff1673ffffffffffffffffffffffffffffffffffffffff16815260200190815260200160002060009054906101000a900460ff16905092915050565b6102818160006102bb90919063ffffffff16565b7f8c3267dcb47d9fd51c05500e000551f5a7f87b6756403ea7aca568668520367f816040516102b0919061043a565b60405180910390a150565b600073ffffffffffffffffffffffffffffffffffffffff168173ffffffffffffffffffffffffffffffffffffffff16036102f457600080fd5b6102fe82826101dc565b61030757600080fd5b60008260000160008373ffffffffffffffffffffffffffffffffffffffff1673ffffffffffffffffffffffffffffffffffffffff16815260200190815260200160002060006101000a81548160ff0219169083151502179055505050565b600080fd5b600073ffffffffffffffffffffffffffffffffffffffff82169050919050565b60006103958261036a565b9050919050565b6103a58161038a565b81146103b057600080fd5b50565b6000813590506103c28161039c565b92915050565b6000602082840312156103de576103dd610365565b5b60006103ec848285016103b3565b91505092915050565b60008115159050919050565b61040a816103f5565b82525050565b60006020820190506104256000830184610401565b92915050565b6104348161038a565b82525050565b600060208201905061044f600083018461042b565b9291505056fea2646970667358221220617d2480359449cfd60174d178434dbb71b530f05da116c91e6b19331f651a8164736f6c63430008110033",
  "immutableReferences": {},
  "source": "//SPDX-License-Identifier:MIT\r\npragma solidity 0.8.17;\r\n\r\nimport \"./RoleHelper.sol\";\r\ncontract RestaurantRole{\r\n\r\n    using RoleHelper for RoleHelper.Role;\r\n\r\n    RoleHelper.Role private Restaurant;\r\n\r\n    event RestaurantAdded(address account);\r\n    event RestaurantRemvoed(address account);\r\n\r\n    constructor() {\r\n        _addRestaurantRole(msg.sender);\r\n    }\r\n\r\n    modifier onlyRestaurant(){\r\n        require(isRestaurant(msg.sender),\"Not a Restaurant\");\r\n        _;\r\n    }\r\n\r\n    function isRestaurant(address account) public view returns(bool){\r\n        return Restaurant.has(account);\r\n    }\r\n\r\n\r\n    function addRestaurant(address account) public {\r\n        _addRestaurantRole(account);\r\n    }\r\n\r\n    function removeRestaurant(address account) public {\r\n        _removeRestaurant(account);\r\n    }\r\n     \r\n    function _addRestaurantRole(address account) internal {\r\n            Restaurant.add(account);\r\n            emit RestaurantAdded(account);\r\n\r\n    }\r\n\r\n    function _removeRestaurant(address account) internal {\r\n        Restaurant.remove(account);\r\n        emit RestaurantRemvoed(account);\r\n    }\r\n}",
  "sourcePath": "E:\\FishTrack_N1\\contracts\\tunahelper\\RestaurantRole.sol",
  "compiler": {
    "name": "solc",
    "version": "0.8.17+commit.8df45f5f.Emscripten.clang"
  },
  "schemaVersion": "3.4.9",
  "updatedAt": "2022-10-14T07:10:49.796Z",
  "devdoc": {
    "kind": "dev",
    "methods": {},
    "version": 1
  },
  "userdoc": {
    "kind": "user",
    "methods": {},
    "version": 1
  }
}