{
  "contractName": "Tracking",
  "abi": [
    {
      "inputs": [],
      "stateMutability": "payable",
      "type": "constructor"
    },
    {
      "anonymous": false,
      "inputs": [
        {
          "indexed": false,
          "internalType": "uint256",
          "name": "upc",
          "type": "uint256"
        }
      ],
      "name": "Audited",
      "type": "event"
    },
    {
      "anonymous": false,
      "inputs": [
        {
          "indexed": false,
          "internalType": "uint256",
          "name": "upc",
          "type": "uint256"
        }
      ],
      "name": "Bought",
      "type": "event"
    },
    {
      "anonymous": false,
      "inputs": [
        {
          "indexed": false,
          "internalType": "uint256",
          "name": "upc",
          "type": "uint256"
        }
      ],
      "name": "Caught",
      "type": "event"
    },
    {
      "anonymous": false,
      "inputs": [
        {
          "indexed": true,
          "internalType": "address",
          "name": "account",
          "type": "address"
        }
      ],
      "name": "FishermanAdded",
      "type": "event"
    },
    {
      "anonymous": false,
      "inputs": [
        {
          "indexed": true,
          "internalType": "address",
          "name": "account",
          "type": "address"
        }
      ],
      "name": "FishermanRemoved",
      "type": "event"
    },
    {
      "anonymous": false,
      "inputs": [
        {
          "indexed": false,
          "internalType": "uint256",
          "name": "upc",
          "type": "uint256"
        }
      ],
      "name": "Recorded",
      "type": "event"
    },
    {
      "anonymous": false,
      "inputs": [
        {
          "indexed": false,
          "internalType": "address",
          "name": "account",
          "type": "address"
        }
      ],
      "name": "RegulatorAdded",
      "type": "event"
    },
    {
      "anonymous": false,
      "inputs": [
        {
          "indexed": false,
          "internalType": "address",
          "name": "account",
          "type": "address"
        }
      ],
      "name": "RegulatorRemvoed",
      "type": "event"
    },
    {
      "anonymous": false,
      "inputs": [
        {
          "indexed": false,
          "internalType": "address",
          "name": "account",
          "type": "address"
        }
      ],
      "name": "RestaurantAdded",
      "type": "event"
    },
    {
      "anonymous": false,
      "inputs": [
        {
          "indexed": false,
          "internalType": "address",
          "name": "account",
          "type": "address"
        }
      ],
      "name": "RestaurantRemvoed",
      "type": "event"
    },
    {
      "inputs": [
        {
          "internalType": "address",
          "name": "account",
          "type": "address"
        }
      ],
      "name": "addFisherman",
      "outputs": [],
      "stateMutability": "nonpayable",
      "type": "function"
    },
    {
      "inputs": [
        {
          "internalType": "address",
          "name": "account",
          "type": "address"
        }
      ],
      "name": "addRegulator",
      "outputs": [],
      "stateMutability": "nonpayable",
      "type": "function"
    },
    {
      "inputs": [
        {
          "internalType": "address",
          "name": "account",
          "type": "address"
        }
      ],
      "name": "addRestaurant",
      "outputs": [],
      "stateMutability": "nonpayable",
      "type": "function"
    },
    {
      "inputs": [
        {
          "internalType": "address",
          "name": "account",
          "type": "address"
        }
      ],
      "name": "isFisherman",
      "outputs": [
        {
          "internalType": "bool",
          "name": "",
          "type": "bool"
        }
      ],
      "stateMutability": "view",
      "type": "function"
    },
    {
      "inputs": [
        {
          "internalType": "address",
          "name": "account",
          "type": "address"
        }
      ],
      "name": "isRegulator",
      "outputs": [
        {
          "internalType": "bool",
          "name": "",
          "type": "bool"
        }
      ],
      "stateMutability": "view",
      "type": "function"
    },
    {
      "inputs": [
        {
          "internalType": "address",
          "name": "account",
          "type": "address"
        }
      ],
      "name": "isRestaurant",
      "outputs": [
        {
          "internalType": "bool",
          "name": "",
          "type": "bool"
        }
      ],
      "stateMutability": "view",
      "type": "function"
    },
    {
      "inputs": [
        {
          "internalType": "address",
          "name": "account",
          "type": "address"
        }
      ],
      "name": "removeRegulator",
      "outputs": [],
      "stateMutability": "nonpayable",
      "type": "function"
    },
    {
      "inputs": [
        {
          "internalType": "address",
          "name": "account",
          "type": "address"
        }
      ],
      "name": "removeRestaurant",
      "outputs": [],
      "stateMutability": "nonpayable",
      "type": "function"
    },
    {
      "inputs": [],
      "name": "renounceFisherman",
      "outputs": [],
      "stateMutability": "nonpayable",
      "type": "function"
    },
    {
      "inputs": [],
      "name": "supplyChainOwner",
      "outputs": [
        {
          "internalType": "address",
          "name": "",
          "type": "address"
        }
      ],
      "stateMutability": "view",
      "type": "function"
    },
    {
      "inputs": [
        {
          "internalType": "uint256",
          "name": "_upc",
          "type": "uint256"
        },
        {
          "internalType": "address",
          "name": "_originFishermanID",
          "type": "address"
        },
        {
          "internalType": "string",
          "name": "_originCoastLocation",
          "type": "string"
        }
      ],
      "name": "catchTuna",
      "outputs": [],
      "stateMutability": "nonpayable",
      "type": "function"
    },
    {
      "inputs": [
        {
          "internalType": "uint256",
          "name": "_upc",
          "type": "uint256"
        },
        {
          "internalType": "uint256",
          "name": "_price",
          "type": "uint256"
        },
        {
          "internalType": "string",
          "name": "_tunaNotes",
          "type": "string"
        }
      ],
      "name": "recordTuna",
      "outputs": [],
      "stateMutability": "nonpayable",
      "type": "function"
    },
    {
      "inputs": [
        {
          "internalType": "uint256",
          "name": "_upc",
          "type": "uint256"
        },
        {
          "internalType": "string",
          "name": "_auditStatus",
          "type": "string"
        }
      ],
      "name": "auditTuna",
      "outputs": [],
      "stateMutability": "nonpayable",
      "type": "function"
    },
    {
      "inputs": [
        {
          "internalType": "uint256",
          "name": "_upc",
          "type": "uint256"
        }
      ],
      "name": "queryTuna",
      "outputs": [
        {
          "internalType": "address",
          "name": "ownerID",
          "type": "address"
        },
        {
          "internalType": "string",
          "name": "originCoastLocation",
          "type": "string"
        },
        {
          "internalType": "string",
          "name": "tunaNotes",
          "type": "string"
        },
        {
          "internalType": "uint256",
          "name": "tunaPrice",
          "type": "uint256"
        },
        {
          "internalType": "enum Tracking.State",
          "name": "tunaState",
          "type": "uint8"
        },
        {
          "internalType": "address",
          "name": "regulatorID",
          "type": "address"
        },
        {
          "internalType": "string",
          "name": "auditStatus",
          "type": "string"
        }
      ],
      "stateMutability": "view",
      "type": "function"
    },
    {
      "inputs": [
        {
          "internalType": "uint256",
          "name": "_upc",
          "type": "uint256"
        },
        {
          "internalType": "uint256",
          "name": "_price",
          "type": "uint256"
        }
      ],
      "name": "buyTuna",
      "outputs": [],
      "stateMutability": "payable",
      "type": "function"
    }
  ],
  "bytecode": "0x608060405262000015336200004560201b60201c565b6200002633620000a660201b60201c565b6200003733620000fd60201b60201c565b6001600481905550620002fd565b620000608160006200015460201b620011a11790919060201c565b8073ffffffffffffffffffffffffffffffffffffffff167fed8c08737b37aef2af953c3b930fa5e3f9a03f87a0a5a1e78eea37cdcbea99fc60405160405180910390a250565b620000c18160016200015460201b620011a11790919060201c565b7f2860b5ba44f983f8f363ee6eeb3c24cbca3096803fbdd5129b9e253f01cac07681604051620000f29190620002e0565b60405180910390a150565b620001188160026200015460201b620011a11790919060201c565b7f30fdfb5b96c8f1d53ce2c2df0c23849ad3b9a86a4b0aae4303d182d635593c4881604051620001499190620002e0565b60405180910390a150565b600073ffffffffffffffffffffffffffffffffffffffff168173ffffffffffffffffffffffffffffffffffffffff16036200018e57600080fd5b620001a082826200020960201b60201c565b15620001ab57600080fd5b60018260000160008373ffffffffffffffffffffffffffffffffffffffff1673ffffffffffffffffffffffffffffffffffffffff16815260200190815260200160002060006101000a81548160ff0219169083151502179055505050565b60008073ffffffffffffffffffffffffffffffffffffffff168273ffffffffffffffffffffffffffffffffffffffff16036200024457600080fd5b8260000160008373ffffffffffffffffffffffffffffffffffffffff1673ffffffffffffffffffffffffffffffffffffffff16815260200190815260200160002060009054906101000a900460ff16905092915050565b600073ffffffffffffffffffffffffffffffffffffffff82169050919050565b6000620002c8826200029b565b9050919050565b620002da81620002bb565b82525050565b6000602082019050620002f76000830184620002cf565b92915050565b612290806200030d6000396000f3fe6080604052600436106100e85760003560e01c8063a5aab8531161008a578063d903399411610059578063d9033994146102e2578063df1bf6861461030b578063e2120f4f14610327578063f868e6ba14610350576100e8565b8063a5aab8531461023c578063ac63f3c714610265578063ae555cfa1461028e578063ccd3948b146102b9576100e8565b806354fc9169116100c657806354fc9169146101565780635ecf35a0146101935780638e673a2d146101d65780639c8a893814610213576100e8565b806307aa94d6146100ed578063328a8cc414610104578063379f5fed1461012d575b600080fd5b3480156100f957600080fd5b5061010261038d565b005b34801561011057600080fd5b5061012b600480360381019061012691906115e5565b610398565b005b34801561013957600080fd5b50610154600480360381019061014f91906115e5565b6103a4565b005b34801561016257600080fd5b5061017d600480360381019061017891906115e5565b6103b0565b60405161018a919061162d565b60405180910390f35b34801561019f57600080fd5b506101ba60048036038101906101b5919061167e565b6103cd565b6040516101cd97969594939291906117d0565b60405180910390f35b3480156101e257600080fd5b506101fd60048036038101906101f891906115e5565b610681565b60405161020a919061162d565b60405180910390f35b34801561021f57600080fd5b5061023a600480360381019061023591906115e5565b61069e565b005b34801561024857600080fd5b50610263600480360381019061025e9190611989565b6106aa565b005b34801561027157600080fd5b5061028c600480360381019061028791906115e5565b6109cf565b005b34801561029a57600080fd5b506102a36109db565b6040516102b091906119f8565b60405180910390f35b3480156102c557600080fd5b506102e060048036038101906102db91906115e5565b610a01565b005b3480156102ee57600080fd5b5061030960048036038101906103049190611a13565b610a0d565b005b61032560048036038101906103209190611a82565b610c41565b005b34801561033357600080fd5b5061034e60048036038101906103499190611ac2565b610fbd565b005b34801561035c57600080fd5b50610377600480360381019061037291906115e5565b611184565b604051610384919061162d565b60405180910390f35b6103963361124c565b565b6103a1816112a6565b50565b6103ad816112f4565b50565b60006103c682600161134290919063ffffffff16565b9050919050565b6000606080600080600060606006600089815260200190815260200160002060010160009054906101000a900473ffffffffffffffffffffffffffffffffffffffff16600660008a8152602001908152602001600020600301600660008b8152602001908152602001600020600401600660008c815260200190815260200160002060050154600660008d815260200190815260200160002060060160009054906101000a900460ff16600660008e815260200190815260200160002060060160019054906101000a900473ffffffffffffffffffffffffffffffffffffffff16600660008f81526020019081526020016000206007018580546104d090611b4d565b80601f01602080910402602001604051908101604052809291908181526020018280546104fc90611b4d565b80156105495780601f1061051e57610100808354040283529160200191610549565b820191906000526020600020905b81548152906001019060200180831161052c57829003601f168201915b5050505050955084805461055c90611b4d565b80601f016020809104026020016040519081016040528092919081815260200182805461058890611b4d565b80156105d55780601f106105aa576101008083540402835291602001916105d5565b820191906000526020600020905b8154815290600101906020018083116105b857829003601f168201915b505050505094508080546105e890611b4d565b80601f016020809104026020016040519081016040528092919081815260200182805461061490611b4d565b80156106615780601f1061063657610100808354040283529160200191610661565b820191906000526020600020905b81548152906001019060200180831161064457829003601f168201915b505050505090509650965096509650965096509650919395979092949650565b600061069782600261134290919063ffffffff16565b9050919050565b6106a7816113d3565b50565b6106b333611184565b6106f2576040517f08c379a00000000000000000000000000000000000000000000000000000000081526004016106e990611bca565b60405180910390fd5b6040518061014001604052808481526020013373ffffffffffffffffffffffffffffffffffffffff1681526020018373ffffffffffffffffffffffffffffffffffffffff168152602001828152602001604051806020016040528060008152508152602001600081526020016000600381111561077257610771611759565b5b8152602001600073ffffffffffffffffffffffffffffffffffffffff168152602001604051806020016040528060008152508152602001600073ffffffffffffffffffffffffffffffffffffffff16815250600660008581526020019081526020016000206000820151816000015560208201518160010160006101000a81548173ffffffffffffffffffffffffffffffffffffffff021916908373ffffffffffffffffffffffffffffffffffffffff16021790555060408201518160020160006101000a81548173ffffffffffffffffffffffffffffffffffffffff021916908373ffffffffffffffffffffffffffffffffffffffff16021790555060608201518160030190816108849190611d96565b50608082015181600401908161089a9190611d96565b5060a0820151816005015560c08201518160060160006101000a81548160ff021916908360038111156108d0576108cf611759565b5b021790555060e08201518160060160016101000a81548173ffffffffffffffffffffffffffffffffffffffff021916908373ffffffffffffffffffffffffffffffffffffffff1602179055506101008201518160070190816109329190611d96565b506101208201518160080160006101000a81548173ffffffffffffffffffffffffffffffffffffffff021916908373ffffffffffffffffffffffffffffffffffffffff160217905550905050600160045461098d9190611e97565b6004819055507f529ae736ca8a70c286dd44931d886d4fd0b014c75625a0bc20e22ffbd547703f836040516109c29190611ecb565b60405180910390a1505050565b6109d88161142d565b50565b600360009054906101000a900473ffffffffffffffffffffffffffffffffffffffff1681565b610a0a8161147b565b50565b8260006003811115610a2257610a21611759565b5b6006600083815260200190815260200160002060060160009054906101000a900460ff166003811115610a5857610a57611759565b5b14610a98576040517f08c379a0000000000000000000000000000000000000000000000000000000008152600401610a8f90611f32565b60405180910390fd5b610aa133611184565b610ae0576040517f08c379a0000000000000000000000000000000000000000000000000000000008152600401610ad790611bca565b60405180910390fd5b6006600085815260200190815260200160002060010160009054906101000a900473ffffffffffffffffffffffffffffffffffffffff168073ffffffffffffffffffffffffffffffffffffffff163373ffffffffffffffffffffffffffffffffffffffff1614610b85576040517f08c379a0000000000000000000000000000000000000000000000000000000008152600401610b7c90611fc4565b60405180910390fd5b82600660008781526020019081526020016000206004019081610ba89190611d96565b5083600660008781526020019081526020016000206005018190555060016006600087815260200190815260200160002060060160006101000a81548160ff02191690836003811115610bfe57610bfd611759565b5b02179055507f3418577b9d6ee1f29ecaa9fa9bd19b32163a53ba06af0e8bb173490ff7cdf40b85604051610c329190611ecb565b60405180910390a15050505050565b8160026003811115610c5657610c55611759565b5b6006600083815260200190815260200160002060060160009054906101000a900460ff166003811115610c8c57610c8b611759565b5b14610ccc576040517f08c379a0000000000000000000000000000000000000000000000000000000008152600401610cc390612030565b60405180910390fd5b610cd533610681565b610d14576040517f08c379a0000000000000000000000000000000000000000000000000000000008152600401610d0b9061209c565b60405180910390fd5b600660008481526020019081526020016000206005015480341015610d6e576040517f08c379a0000000000000000000000000000000000000000000000000000000008152600401610d659061212e565b60405180910390fd5b8360006006600083815260200190815260200160002060050154905060008134610d98919061214e565b90506006600084815260200190815260200160002060080160009054906101000a900473ffffffffffffffffffffffffffffffffffffffff1673ffffffffffffffffffffffffffffffffffffffff166108fc829081150290604051600060405180830381858888f19350505050158015610e16573d6000803e3d6000fd5b506006600088815260200190815260200160002060010160009054906101000a900473ffffffffffffffffffffffffffffffffffffffff1673ffffffffffffffffffffffffffffffffffffffff166108fc879081150290604051600060405180830381858888f19350505050158015610e93573d6000803e3d6000fd5b50336006600089815260200190815260200160002060080160006101000a81548173ffffffffffffffffffffffffffffffffffffffff021916908373ffffffffffffffffffffffffffffffffffffffff160217905550336006600089815260200190815260200160002060010160006101000a81548173ffffffffffffffffffffffffffffffffffffffff021916908373ffffffffffffffffffffffffffffffffffffffff16021790555060036006600089815260200190815260200160002060060160006101000a81548160ff02191690836003811115610f7857610f77611759565b5b02179055507f4e08ba899977cf7d4c2964bce71c6b9a7ef76ee5166a4c1249a1e08016e33ef187604051610fac9190611ecb565b60405180910390a150505050505050565b8160016003811115610fd257610fd1611759565b5b6006600083815260200190815260200160002060060160009054906101000a900460ff16600381111561100857611007611759565b5b14611048576040517f08c379a000000000000000000000000000000000000000000000000000000000815260040161103f906121ce565b60405180910390fd5b611051336103b0565b611090576040517f08c379a00000000000000000000000000000000000000000000000000000000081526004016110879061223a565b60405180910390fd5b336006600085815260200190815260200160002060060160016101000a81548173ffffffffffffffffffffffffffffffffffffffff021916908373ffffffffffffffffffffffffffffffffffffffff160217905550816006600085815260200190815260200160002060070190816111089190611d96565b5060026006600085815260200190815260200160002060060160006101000a81548160ff0219169083600381111561114357611142611759565b5b02179055507f79687301d55ce8c07d357ae3f6ca0cfb94888028f8a37faf94dd48f47e961eec836040516111779190611ecb565b60405180910390a1505050565b600061119a82600061134290919063ffffffff16565b9050919050565b600073ffffffffffffffffffffffffffffffffffffffff168173ffffffffffffffffffffffffffffffffffffffff16036111da57600080fd5b6111e48282611342565b156111ee57600080fd5b60018260000160008373ffffffffffffffffffffffffffffffffffffffff1673ffffffffffffffffffffffffffffffffffffffff16815260200190815260200160002060006101000a81548160ff0219169083151502179055505050565b6112608160006114c990919063ffffffff16565b8073ffffffffffffffffffffffffffffffffffffffff167ff56c56653b8d7dabb804d2c9d05ae558d0ed3825cdf8922f4622e49985f4843760405160405180910390a250565b6112ba8160026111a190919063ffffffff16565b7f30fdfb5b96c8f1d53ce2c2df0c23849ad3b9a86a4b0aae4303d182d635593c48816040516112e991906119f8565b60405180910390a150565b6113088160016114c990919063ffffffff16565b7f07a1fafad8da8b23bc43cd8efc42dad59953ffeb41b9db6abadbaaea465543328160405161133791906119f8565b60405180910390a150565b60008073ffffffffffffffffffffffffffffffffffffffff168273ffffffffffffffffffffffffffffffffffffffff160361137c57600080fd5b8260000160008373ffffffffffffffffffffffffffffffffffffffff1673ffffffffffffffffffffffffffffffffffffffff16815260200190815260200160002060009054906101000a900460ff16905092915050565b6113e78160006111a190919063ffffffff16565b8073ffffffffffffffffffffffffffffffffffffffff167fed8c08737b37aef2af953c3b930fa5e3f9a03f87a0a5a1e78eea37cdcbea99fc60405160405180910390a250565b6114418160016111a190919063ffffffff16565b7f2860b5ba44f983f8f363ee6eeb3c24cbca3096803fbdd5129b9e253f01cac0768160405161147091906119f8565b60405180910390a150565b61148f8160026114c990919063ffffffff16565b7f8c3267dcb47d9fd51c05500e000551f5a7f87b6756403ea7aca568668520367f816040516114be91906119f8565b60405180910390a150565b600073ffffffffffffffffffffffffffffffffffffffff168173ffffffffffffffffffffffffffffffffffffffff160361150257600080fd5b61150c8282611342565b61151557600080fd5b60008260000160008373ffffffffffffffffffffffffffffffffffffffff1673ffffffffffffffffffffffffffffffffffffffff16815260200190815260200160002060006101000a81548160ff0219169083151502179055505050565b6000604051905090565b600080fd5b600080fd5b600073ffffffffffffffffffffffffffffffffffffffff82169050919050565b60006115b282611587565b9050919050565b6115c2816115a7565b81146115cd57600080fd5b50565b6000813590506115df816115b9565b92915050565b6000602082840312156115fb576115fa61157d565b5b6000611609848285016115d0565b91505092915050565b60008115159050919050565b61162781611612565b82525050565b6000602082019050611642600083018461161e565b92915050565b6000819050919050565b61165b81611648565b811461166657600080fd5b50565b60008135905061167881611652565b92915050565b6000602082840312156116945761169361157d565b5b60006116a284828501611669565b91505092915050565b6116b4816115a7565b82525050565b600081519050919050565b600082825260208201905092915050565b60005b838110156116f45780820151818401526020810190506116d9565b60008484015250505050565b6000601f19601f8301169050919050565b600061171c826116ba565b61172681856116c5565b93506117368185602086016116d6565b61173f81611700565b840191505092915050565b61175381611648565b82525050565b7f4e487b7100000000000000000000000000000000000000000000000000000000600052602160045260246000fd5b6004811061179957611798611759565b5b50565b60008190506117aa82611788565b919050565b60006117ba8261179c565b9050919050565b6117ca816117af565b82525050565b600060e0820190506117e5600083018a6116ab565b81810360208301526117f78189611711565b9050818103604083015261180b8188611711565b905061181a606083018761174a565b61182760808301866117c1565b61183460a08301856116ab565b81810360c08301526118468184611711565b905098975050505050505050565b600080fd5b600080fd5b7f4e487b7100000000000000000000000000000000000000000000000000000000600052604160045260246000fd5b61189682611700565b810181811067ffffffffffffffff821117156118b5576118b461185e565b5b80604052505050565b60006118c8611573565b90506118d4828261188d565b919050565b600067ffffffffffffffff8211156118f4576118f361185e565b5b6118fd82611700565b9050602081019050919050565b82818337600083830152505050565b600061192c611927846118d9565b6118be565b90508281526020810184848401111561194857611947611859565b5b61195384828561190a565b509392505050565b600082601f8301126119705761196f611854565b5b8135611980848260208601611919565b91505092915050565b6000806000606084860312156119a2576119a161157d565b5b60006119b086828701611669565b93505060206119c1868287016115d0565b925050604084013567ffffffffffffffff8111156119e2576119e1611582565b5b6119ee8682870161195b565b9150509250925092565b6000602082019050611a0d60008301846116ab565b92915050565b600080600060608486031215611a2c57611a2b61157d565b5b6000611a3a86828701611669565b9350506020611a4b86828701611669565b925050604084013567ffffffffffffffff811115611a6c57611a6b611582565b5b611a788682870161195b565b9150509250925092565b60008060408385031215611a9957611a9861157d565b5b6000611aa785828601611669565b9250506020611ab885828601611669565b9150509250929050565b60008060408385031215611ad957611ad861157d565b5b6000611ae785828601611669565b925050602083013567ffffffffffffffff811115611b0857611b07611582565b5b611b148582860161195b565b9150509250929050565b7f4e487b7100000000000000000000000000000000000000000000000000000000600052602260045260246000fd5b60006002820490506001821680611b6557607f821691505b602082108103611b7857611b77611b1e565b5b50919050565b7f4e6f74206120666973686572206d616e00000000000000000000000000000000600082015250565b6000611bb46010836116c5565b9150611bbf82611b7e565b602082019050919050565b60006020820190508181036000830152611be381611ba7565b9050919050565b60008190508160005260206000209050919050565b60006020601f8301049050919050565b600082821b905092915050565b600060088302611c4c7fffffffffffffffffffffffffffffffffffffffffffffffffffffffffffffffff82611c0f565b611c568683611c0f565b95508019841693508086168417925050509392505050565b6000819050919050565b6000611c93611c8e611c8984611648565b611c6e565b611648565b9050919050565b6000819050919050565b611cad83611c78565b611cc1611cb982611c9a565b848454611c1c565b825550505050565b600090565b611cd6611cc9565b611ce1818484611ca4565b505050565b5b81811015611d0557611cfa600082611cce565b600181019050611ce7565b5050565b601f821115611d4a57611d1b81611bea565b611d2484611bff565b81016020851015611d33578190505b611d47611d3f85611bff565b830182611ce6565b50505b505050565b600082821c905092915050565b6000611d6d60001984600802611d4f565b1980831691505092915050565b6000611d868383611d5c565b9150826002028217905092915050565b611d9f826116ba565b67ffffffffffffffff811115611db857611db761185e565b5b611dc28254611b4d565b611dcd828285611d09565b600060209050601f831160018114611e005760008415611dee578287015190505b611df88582611d7a565b865550611e60565b601f198416611e0e86611bea565b60005b82811015611e3657848901518255600182019150602085019450602081019050611e11565b86831015611e535784890151611e4f601f891682611d5c565b8355505b6001600288020188555050505b505050505050565b7f4e487b7100000000000000000000000000000000000000000000000000000000600052601160045260246000fd5b6000611ea282611648565b9150611ead83611648565b9250828201905080821115611ec557611ec4611e68565b5b92915050565b6000602082019050611ee0600083018461174a565b92915050565b7f54756e61207374617465206973207374696c6c206e6f74206361756768740000600082015250565b6000611f1c601e836116c5565b9150611f2782611ee6565b602082019050919050565b60006020820190508181036000830152611f4b81611f0f565b9050919050565b7f43616c6c657220766572696669636174696f6e20776173206e6f74207375636360008201527f65737366756c0000000000000000000000000000000000000000000000000000602082015250565b6000611fae6026836116c5565b9150611fb982611f52565b604082019050919050565b60006020820190508181036000830152611fdd81611fa1565b9050919050565b7f54756e61207374617465206973207374696c6c206e6f74206175646974656400600082015250565b600061201a601f836116c5565b915061202582611fe4565b602082019050919050565b600060208201905081810360008301526120498161200d565b9050919050565b7f4e6f7420612052657374617572616e7400000000000000000000000000000000600082015250565b60006120866010836116c5565b915061209182612050565b602082019050919050565b600060208201905081810360008301526120b581612079565b9050919050565b7f496e73756666696369656e7420616d6f756e7420666f72207468652071756f7460008201527f6564207072696365000000000000000000000000000000000000000000000000602082015250565b60006121186028836116c5565b9150612123826120bc565b604082019050919050565b600060208201905081810360008301526121478161210b565b9050919050565b600061215982611648565b915061216483611648565b925082820390508181111561217c5761217b611e68565b5b92915050565b7f54756e61207374617465206973207374696c6c206e6f74207265636f72646564600082015250565b60006121b86020836116c5565b91506121c382612182565b602082019050919050565b600060208201905081810360008301526121e7816121ab565b9050919050565b7f4e6f74206120526567756c61746f720000000000000000000000000000000000600082015250565b6000612224600f836116c5565b915061222f826121ee565b602082019050919050565b6000602082019050818103600083015261225381612217565b905091905056fea26469706673582212205ad170652a21e1b6e1af080ec26726a70ba659fc7e8a081e1d7a820a15993e5c64736f6c63430008110033",
  "immutableReferences": {},
  "source": "//SPDX-License-Identifier:MIT\r\npragma solidity 0.8.17;\r\n\r\nimport \"../tunahelper/FishermanRole.sol\";\r\nimport \"../tunahelper/RegulatorRole.sol\";\r\nimport \"../tunahelper/RestaurantRole.sol\";\r\ncontract Tracking is FishermanRole, RegulatorRole,RestaurantRole{\r\n    address public supplyChainOwner;\r\n    uint upc;\r\n    uint sku;\r\n    enum State{\r\n        Caught,\r\n        Recorded,\r\n        Audited,\r\n        Bought\r\n\r\n    }\r\n\r\n    State constant defaultState = State.Caught;\r\n\r\n    struct TunaFish{\r\n        uint upc;\r\n        address payable ownerID;\r\n        address originFishermanID;\r\n        string originCoastLocation;\r\n        string tunaNotes;\r\n        uint tunaPrice;\r\n        State tunaState;\r\n        address regulatorID;\r\n        string auditStatus;\r\n        address payable restaurantID;\r\n    }\r\n\r\n    mapping(uint => TunaFish) tunaFish;\r\n    mapping(uint => string[]) tunaHistory;\r\n\r\n\r\n    event Caught(uint upc);\r\n    event Recorded(uint upc);\r\n    event Audited(uint upc);\r\n    event Bought(uint upc);\r\n\r\n    modifier verifyCaller (address _address){\r\n        require(msg.sender == _address, \"Caller verification was not successful\");\r\n        _;\r\n    }\r\n\r\n    modifier paidEnough(uint _price){\r\n        require(msg.value >= _price,\"Insufficient amount for the quoted price\");\r\n        _;\r\n    }\r\n\r\n    modifier checkValue(uint _upc){\r\n        uint _price = tunaFish[_upc].tunaPrice;\r\n        uint amountToReturn = msg.value - _price;\r\n        tunaFish[_upc].restaurantID.transfer(amountToReturn);\r\n        _;\r\n    }\r\n\r\n    modifier caught(uint _upc){\r\n        require(tunaFish[_upc].tunaState == State.Caught,\"Tuna state is still not caught\");\r\n        _;\r\n    }\r\n\r\n    modifier recorded(uint _upc){\r\n        require(tunaFish[_upc].tunaState == State.Recorded,\"Tuna state is still not recorded\");\r\n        _;\r\n    }\r\n\r\n    modifier audited(uint _upc){\r\n        require(tunaFish[_upc].tunaState == State.Audited,\"Tuna state is still not audited\");\r\n        _;\r\n    }\r\n\r\n    modifier bought(uint _upc){\r\n        require(tunaFish[_upc].tunaState == State.Bought,\"Tuna state is still not bought\");\r\n        _;\r\n    }\r\n    \r\n\r\n    constructor() payable{\r\n        upc = 1;\r\n    }\r\n\r\n    function catchTuna(uint _upc, address _originFishermanID, string memory _originCoastLocation) public onlyFisherman(){\r\n\r\n        tunaFish[_upc] = TunaFish({\r\n\r\n            upc : _upc,\r\n            ownerID: payable(msg.sender),\r\n            originFishermanID: _originFishermanID,\r\n            originCoastLocation: _originCoastLocation,\r\n            tunaNotes: \"\",\r\n            tunaPrice: 0,\r\n            tunaState: defaultState,\r\n            regulatorID: address(0),\r\n            auditStatus: \"\",\r\n            restaurantID: payable(address(0))\r\n\r\n        });\r\n\r\n        upc = upc+1;\r\n\r\n        emit Caught(_upc);\r\n    }\r\n\r\n    function recordTuna(uint _upc, uint _price, string memory _tunaNotes) public caught (_upc) onlyFisherman() verifyCaller(tunaFish[_upc].ownerID){\r\n        tunaFish[_upc].tunaNotes = _tunaNotes;\r\n        tunaFish[_upc].tunaPrice = _price;\r\n        tunaFish[_upc].tunaState = State.Recorded;\r\n\r\n        emit Recorded(_upc);\r\n    }\r\n\r\n\r\n    function auditTuna(uint _upc, string memory _auditStatus) public recorded(_upc) onlyRegulator(){\r\n        tunaFish[_upc].regulatorID = msg.sender;\r\n        tunaFish[_upc].auditStatus = _auditStatus;\r\n        tunaFish[_upc].tunaState = State.Audited;\r\n\r\n        emit Audited(_upc);\r\n\r\n    }\r\n\r\n\r\n    function queryTuna (uint _upc) public view returns (\r\n\r\n        address ownerID,\r\n        string memory originCoastLocation,\r\n        string memory tunaNotes,\r\n        uint tunaPrice,\r\n        State tunaState,\r\n        address regulatorID,\r\n        string memory auditStatus\r\n\r\n    ){\r\n\r\n\r\n        return(\r\n             tunaFish[_upc].ownerID,\r\n             tunaFish[_upc].originCoastLocation,\r\n             tunaFish[_upc].tunaNotes,\r\n             tunaFish[_upc].tunaPrice,\r\n             tunaFish[_upc].tunaState,\r\n             tunaFish[_upc].regulatorID,\r\n             tunaFish[_upc].auditStatus\r\n               \r\n        );\r\n    }\r\n\r\n    function buyTuna(uint _upc, uint _price) public payable audited(_upc) onlyRestaurant() paidEnough(tunaFish[_upc].tunaPrice) checkValue(_upc){\r\n        tunaFish[_upc].ownerID.transfer(_price);\r\n        tunaFish[_upc].restaurantID = payable(msg.sender);\r\n        tunaFish[_upc].ownerID = payable(msg.sender);\r\n        tunaFish[_upc].tunaState = State.Bought;\r\n\r\n        emit Bought(_upc);\r\n    }\r\n    \r\n}\r\n\r\n\r\n",
  "sourcePath": "E:\\FishTrack_N1\\contracts\\tunasupplychain\\Tracking.sol",
  "compiler": {
    "name": "solc",
    "version": "0.8.17+commit.8df45f5f.Emscripten.clang"
  },
  "schemaVersion": "3.4.9",
  "updatedAt": "2022-10-14T07:10:49.803Z",
  "devdoc": {
    "kind": "dev",
    "methods": {},
    "version": 1
  },
  "userdoc": {
    "kind": "user",
    "methods": {},
    "version": 1
  }
}